{
  "_format": "hh-sol-artifact-1",
  "contractName": "MMD",
  "sourceName": "contracts/MMD_V1.sol",
  "abi": [
    {
      "inputs": [],
      "stateMutability": "nonpayable",
      "type": "constructor"
    },
    {
      "anonymous": false,
      "inputs": [
        {
          "indexed": true,
          "internalType": "address",
          "name": "owner",
          "type": "address"
        },
        {
          "indexed": true,
          "internalType": "address",
          "name": "spender",
          "type": "address"
        },
        {
          "indexed": false,
          "internalType": "uint256",
          "name": "value",
          "type": "uint256"
        }
      ],
      "name": "Approval",
      "type": "event"
    },
    {
      "anonymous": false,
      "inputs": [
        {
          "indexed": true,
          "internalType": "address",
          "name": "from",
          "type": "address"
        },
        {
          "indexed": true,
          "internalType": "address",
          "name": "to",
          "type": "address"
        },
        {
          "indexed": false,
          "internalType": "uint256",
          "name": "value",
          "type": "uint256"
        }
      ],
      "name": "Transfer",
      "type": "event"
    },
    {
      "inputs": [],
      "name": "DOMAIN_SEPARATOR",
      "outputs": [
        {
          "internalType": "bytes32",
          "name": "",
          "type": "bytes32"
        }
      ],
      "stateMutability": "view",
      "type": "function"
    },
    {
      "inputs": [
        {
          "internalType": "address",
          "name": "owner",
          "type": "address"
        },
        {
          "internalType": "address",
          "name": "spender",
          "type": "address"
        }
      ],
      "name": "allowance",
      "outputs": [
        {
          "internalType": "uint256",
          "name": "",
          "type": "uint256"
        }
      ],
      "stateMutability": "view",
      "type": "function"
    },
    {
      "inputs": [
        {
          "internalType": "address",
          "name": "spender",
          "type": "address"
        },
        {
          "internalType": "uint256",
          "name": "amount",
          "type": "uint256"
        }
      ],
      "name": "approve",
      "outputs": [
        {
          "internalType": "bool",
          "name": "",
          "type": "bool"
        }
      ],
      "stateMutability": "nonpayable",
      "type": "function"
    },
    {
      "inputs": [
        {
          "internalType": "address",
          "name": "account",
          "type": "address"
        }
      ],
      "name": "balanceOf",
      "outputs": [
        {
          "internalType": "uint256",
          "name": "",
          "type": "uint256"
        }
      ],
      "stateMutability": "view",
      "type": "function"
    },
    {
      "inputs": [],
      "name": "decimals",
      "outputs": [
        {
          "internalType": "uint8",
          "name": "",
          "type": "uint8"
        }
      ],
      "stateMutability": "view",
      "type": "function"
    },
    {
      "inputs": [
        {
          "internalType": "address",
          "name": "spender",
          "type": "address"
        },
        {
          "internalType": "uint256",
          "name": "subtractedValue",
          "type": "uint256"
        }
      ],
      "name": "decreaseAllowance",
      "outputs": [
        {
          "internalType": "bool",
          "name": "",
          "type": "bool"
        }
      ],
      "stateMutability": "nonpayable",
      "type": "function"
    },
    {
      "inputs": [
        {
          "internalType": "address",
          "name": "",
          "type": "address"
        }
      ],
      "name": "history",
      "outputs": [
        {
          "internalType": "bool",
          "name": "",
          "type": "bool"
        }
      ],
      "stateMutability": "view",
      "type": "function"
    },
    {
      "inputs": [
        {
          "internalType": "address",
          "name": "spender",
          "type": "address"
        },
        {
          "internalType": "uint256",
          "name": "addedValue",
          "type": "uint256"
        }
      ],
      "name": "increaseAllowance",
      "outputs": [
        {
          "internalType": "bool",
          "name": "",
          "type": "bool"
        }
      ],
      "stateMutability": "nonpayable",
      "type": "function"
    },
    {
      "inputs": [
        {
          "internalType": "uint256",
          "name": "merchantRatio",
          "type": "uint256"
        },
        {
          "internalType": "uint256",
          "name": "vgateRatio",
          "type": "uint256"
        },
        {
          "internalType": "uint256",
          "name": "fundationRatio",
          "type": "uint256"
        },
        {
          "internalType": "address",
          "name": "merchantPool",
          "type": "address"
        },
        {
          "internalType": "address",
          "name": "vgatePool",
          "type": "address"
        },
        {
          "internalType": "address",
          "name": "fundationPool",
          "type": "address"
        }
      ],
      "name": "init",
      "outputs": [],
      "stateMutability": "nonpayable",
      "type": "function"
    },
    {
      "inputs": [],
      "name": "maker",
      "outputs": [
        {
          "internalType": "address",
          "name": "",
          "type": "address"
        }
      ],
      "stateMutability": "view",
      "type": "function"
    },
    {
      "inputs": [
        {
          "internalType": "address",
          "name": "to",
          "type": "address"
        },
        {
          "internalType": "uint256",
          "name": "amount",
          "type": "uint256"
        }
      ],
      "name": "mint",
      "outputs": [],
      "stateMutability": "nonpayable",
      "type": "function"
    },
    {
      "inputs": [],
      "name": "name",
      "outputs": [
        {
          "internalType": "string",
          "name": "",
          "type": "string"
        }
      ],
      "stateMutability": "view",
      "type": "function"
    },
    {
      "inputs": [
        {
          "internalType": "address",
          "name": "owner",
          "type": "address"
        }
      ],
      "name": "nonces",
      "outputs": [
        {
          "internalType": "uint256",
          "name": "",
          "type": "uint256"
        }
      ],
      "stateMutability": "view",
      "type": "function"
    },
    {
      "inputs": [
        {
          "internalType": "address",
          "name": "owner",
          "type": "address"
        },
        {
          "internalType": "address",
          "name": "spender",
          "type": "address"
        },
        {
          "internalType": "uint256",
          "name": "value",
          "type": "uint256"
        },
        {
          "internalType": "uint256",
          "name": "deadline",
          "type": "uint256"
        },
        {
          "internalType": "uint8",
          "name": "v",
          "type": "uint8"
        },
        {
          "internalType": "bytes32",
          "name": "r",
          "type": "bytes32"
        },
        {
          "internalType": "bytes32",
          "name": "s",
          "type": "bytes32"
        }
      ],
      "name": "permit",
      "outputs": [],
      "stateMutability": "nonpayable",
      "type": "function"
    },
    {
      "inputs": [
        {
          "internalType": "address",
          "name": "account",
          "type": "address"
        }
      ],
      "name": "reward",
      "outputs": [],
      "stateMutability": "nonpayable",
      "type": "function"
    },
    {
      "inputs": [
        {
          "internalType": "address",
          "name": "newMaker",
          "type": "address"
        }
      ],
      "name": "setMaker",
      "outputs": [],
      "stateMutability": "nonpayable",
      "type": "function"
    },
    {
      "inputs": [],
      "name": "symbol",
      "outputs": [
        {
          "internalType": "string",
          "name": "",
          "type": "string"
        }
      ],
      "stateMutability": "view",
      "type": "function"
    },
    {
      "inputs": [],
      "name": "totalSupply",
      "outputs": [
        {
          "internalType": "uint256",
          "name": "",
          "type": "uint256"
        }
      ],
      "stateMutability": "view",
      "type": "function"
    },
    {
      "inputs": [
        {
          "internalType": "address",
          "name": "to",
          "type": "address"
        },
        {
          "internalType": "uint256",
          "name": "amount",
          "type": "uint256"
        }
      ],
      "name": "transfer",
      "outputs": [
        {
          "internalType": "bool",
          "name": "",
          "type": "bool"
        }
      ],
      "stateMutability": "nonpayable",
      "type": "function"
    },
    {
      "inputs": [
        {
          "internalType": "address",
          "name": "from",
          "type": "address"
        },
        {
          "internalType": "address",
          "name": "to",
          "type": "address"
        },
        {
          "internalType": "uint256",
          "name": "amount",
          "type": "uint256"
        }
      ],
      "name": "transferFrom",
      "outputs": [
        {
          "internalType": "bool",
          "name": "",
          "type": "bool"
        }
      ],
      "stateMutability": "nonpayable",
      "type": "function"
    }
  ],
  "bytecode": "0x6101806040526064600955620186a061014090815250600460ff166101609060ff168152506000600a60006101000a81548160ff0219169083151502179055503480156200004c57600080fd5b506040518060400160405280600e81526020017f4d6574614d656368616e74446f74000000000000000000000000000000000000815250806040518060400160405280600181526020017f31000000000000000000000000000000000000000000000000000000000000008152506040518060400160405280600e81526020017f4d6574614d656368616e74446f740000000000000000000000000000000000008152506040518060400160405280600381526020017f4d4d44000000000000000000000000000000000000000000000000000000000081525081600390816200013791906200072f565b5080600490816200014991906200072f565b50505060008280519060200120905060008280519060200120905060007f8b73c3c69bb8fe3d512ecc4cf759cc79239f7b179b0ffacaa9a75d522b39400f90508260e081815250508161010081815250504660a08181525050620001b5818484620002f760201b60201c565b608081815250503073ffffffffffffffffffffffffffffffffffffffff1660c08173ffffffffffffffffffffffffffffffffffffffff168152505080610120818152505050505050505033600860006101000a81548173ffffffffffffffffffffffffffffffffffffffff021916908373ffffffffffffffffffffffffffffffffffffffff160217905550620002506200033360201b60201c565b600a6200025e9190620009a6565b6009546200026d9190620009f7565b60098190555062000287336009546200033e60201b60201c565b3373ffffffffffffffffffffffffffffffffffffffff16600073ffffffffffffffffffffffffffffffffffffffff167fddf252ad1be2c89b69c2b068fc378daa952ba7f163c4a11628f55a4df523b3ef600954604051620002e9919062000a53565b60405180910390a362000beb565b600083838346306040516020016200031495949392919062000ad0565b6040516020818303038152906040528051906020012090509392505050565b600061016051905090565b600073ffffffffffffffffffffffffffffffffffffffff168273ffffffffffffffffffffffffffffffffffffffff1603620003b0576040517f08c379a0000000000000000000000000000000000000000000000000000000008152600401620003a79062000b8e565b60405180910390fd5b620003c460008383620004ab60201b60201c565b8060026000828254620003d8919062000bb0565b92505081905550806000808473ffffffffffffffffffffffffffffffffffffffff1673ffffffffffffffffffffffffffffffffffffffff168152602001908152602001600020600082825401925050819055508173ffffffffffffffffffffffffffffffffffffffff16600073ffffffffffffffffffffffffffffffffffffffff167fddf252ad1be2c89b69c2b068fc378daa952ba7f163c4a11628f55a4df523b3ef836040516200048b919062000a53565b60405180910390a3620004a760008383620004b060201b60201c565b5050565b505050565b505050565b600081519050919050565b7f4e487b7100000000000000000000000000000000000000000000000000000000600052604160045260246000fd5b7f4e487b7100000000000000000000000000000000000000000000000000000000600052602260045260246000fd5b600060028204905060018216806200053757607f821691505b6020821081036200054d576200054c620004ef565b5b50919050565b60008190508160005260206000209050919050565b60006020601f8301049050919050565b600082821b905092915050565b600060088302620005b77fffffffffffffffffffffffffffffffffffffffffffffffffffffffffffffffff8262000578565b620005c3868362000578565b95508019841693508086168417925050509392505050565b6000819050919050565b6000819050919050565b6000620006106200060a6200060484620005db565b620005e5565b620005db565b9050919050565b6000819050919050565b6200062c83620005ef565b620006446200063b8262000617565b84845462000585565b825550505050565b600090565b6200065b6200064c565b6200066881848462000621565b505050565b5b8181101562000690576200068460008262000651565b6001810190506200066e565b5050565b601f821115620006df57620006a98162000553565b620006b48462000568565b81016020851015620006c4578190505b620006dc620006d38562000568565b8301826200066d565b50505b505050565b600082821c905092915050565b60006200070460001984600802620006e4565b1980831691505092915050565b60006200071f8383620006f1565b9150826002028217905092915050565b6200073a82620004b5565b67ffffffffffffffff811115620007565762000755620004c0565b5b6200076282546200051e565b6200076f82828562000694565b600060209050601f831160018114620007a7576000841562000792578287015190505b6200079e858262000711565b8655506200080e565b601f198416620007b78662000553565b60005b82811015620007e157848901518255600182019150602085019450602081019050620007ba565b86831015620008015784890151620007fd601f891682620006f1565b8355505b6001600288020188555050505b505050505050565b7f4e487b7100000000000000000000000000000000000000000000000000000000600052601160045260246000fd5b60008160011c9050919050565b6000808291508390505b6001851115620008a4578086048111156200087c576200087b62000816565b5b60018516156200088c5780820291505b80810290506200089c8562000845565b94506200085c565b94509492505050565b600082620008bf576001905062000992565b81620008cf576000905062000992565b8160018114620008e85760028114620008f35762000929565b600191505062000992565b60ff84111562000908576200090762000816565b5b8360020a91508482111562000922576200092162000816565b5b5062000992565b5060208310610133831016604e8410600b8410161715620009635782820a9050838111156200095d576200095c62000816565b5b62000992565b62000972848484600162000852565b925090508184048111156200098c576200098b62000816565b5b81810290505b9392505050565b600060ff82169050919050565b6000620009b382620005db565b9150620009c08362000999565b9250620009ef7fffffffffffffffffffffffffffffffffffffffffffffffffffffffffffffffff8484620008ad565b905092915050565b600062000a0482620005db565b915062000a1183620005db565b925082820262000a2181620005db565b9150828204841483151762000a3b5762000a3a62000816565b5b5092915050565b62000a4d81620005db565b82525050565b600060208201905062000a6a600083018462000a42565b92915050565b6000819050919050565b62000a858162000a70565b82525050565b600073ffffffffffffffffffffffffffffffffffffffff82169050919050565b600062000ab88262000a8b565b9050919050565b62000aca8162000aab565b82525050565b600060a08201905062000ae7600083018862000a7a565b62000af6602083018762000a7a565b62000b05604083018662000a7a565b62000b14606083018562000a42565b62000b23608083018462000abf565b9695505050505050565b600082825260208201905092915050565b7f45524332303a206d696e7420746f20746865207a65726f206164647265737300600082015250565b600062000b76601f8362000b2d565b915062000b838262000b3e565b602082019050919050565b6000602082019050818103600083015262000ba98162000b67565b9050919050565b600062000bbd82620005db565b915062000bca83620005db565b925082820190508082111562000be55762000be462000816565b5b92915050565b60805160a05160c05160e05161010051610120516101405161016051612d5262000c5160003960006105130152600061062301526000611565015260006115a701526000611586015260006114bb015260006115110152600061153a0152612d526000f3fe608060405234801561001057600080fd5b506004361061012c5760003560e01c806370a08231116100ad578063a9059cbb11610071578063a9059cbb1461036d578063bc19a9e21461039d578063c202ca63146103b9578063d505accf146103d5578063dd62ed3e146103f15761012c565b806370a082311461028f5780637ecebe00146102bf578063931c7c68146102ef57806395d89b411461031f578063a457c2d71461033d5761012c565b80633644e515116100f45780633644e515146101eb578063395093511461020957806340c10f191461023957806350655d8c146102555780636353586b146102735761012c565b806306fdde0314610131578063095ea7b31461014f57806318160ddd1461017f57806323b872dd1461019d578063313ce567146101cd575b600080fd5b610139610421565b6040516101469190611b3d565b60405180910390f35b61016960048036038101906101649190611bf8565b6104b3565b6040516101769190611c53565b60405180910390f35b6101876104d6565b6040516101949190611c7d565b60405180910390f35b6101b760048036038101906101b29190611c98565b6104e0565b6040516101c49190611c53565b60405180910390f35b6101d561050f565b6040516101e29190611d07565b60405180910390f35b6101f3610537565b6040516102009190611d3b565b60405180910390f35b610223600480360381019061021e9190611bf8565b610546565b6040516102309190611c53565b60405180910390f35b610253600480360381019061024e9190611bf8565b61057d565b005b61025d6106ea565b60405161026a9190611d65565b60405180910390f35b61028d60048036038101906102889190611d80565b610710565b005b6102a960048036038101906102a49190611d80565b610821565b6040516102b69190611c7d565b60405180910390f35b6102d960048036038101906102d49190611d80565b610869565b6040516102e69190611c7d565b60405180910390f35b61030960048036038101906103049190611d80565b6108b9565b6040516103169190611c53565b60405180910390f35b6103276108d9565b6040516103349190611b3d565b60405180910390f35b61035760048036038101906103529190611bf8565b61096b565b6040516103649190611c53565b60405180910390f35b61038760048036038101906103829190611bf8565b6109e2565b6040516103949190611c53565b60405180910390f35b6103b760048036038101906103b29190611d80565b610a05565b005b6103d360048036038101906103ce9190611dad565b610ad9565b005b6103ef60048036038101906103ea9190611e92565b610e1b565b005b61040b60048036038101906104069190611f34565b610f5d565b6040516104189190611c7d565b60405180910390f35b60606003805461043090611fa3565b80601f016020809104026020016040519081016040528092919081815260200182805461045c90611fa3565b80156104a95780601f1061047e576101008083540402835291602001916104a9565b820191906000526020600020905b81548152906001019060200180831161048c57829003601f168201915b5050505050905090565b6000806104be610fe4565b90506104cb818585610fec565b600191505092915050565b6000600254905090565b6000806104eb610fe4565b90506104f88582856111b5565b610503858585611241565b60019150509392505050565b60007f0000000000000000000000000000000000000000000000000000000000000000905090565b60006105416114b7565b905090565b600080610551610fe4565b90506105728185856105638589610f5d565b61056d9190612003565b610fec565b600191505092915050565b600860009054906101000a900473ffffffffffffffffffffffffffffffffffffffff1673ffffffffffffffffffffffffffffffffffffffff163373ffffffffffffffffffffffffffffffffffffffff161461060d576040517f08c379a0000000000000000000000000000000000000000000000000000000008152600401610604906120a9565b60405180910390fd5b61061561050f565b600a61062191906121fc565b7f000000000000000000000000000000000000000000000000000000000000000061064c9190612247565b61065461050f565b600a61066091906121fc565b8261066b9190612247565b6106736104d6565b61067d9190612003565b11156106be576040517f08c379a00000000000000000000000000000000000000000000000000000000081526004016106b5906122d5565b60405180910390fd5b6106e6826106ca61050f565b600a6106d691906121fc565b836106e19190612247565b6115d1565b5050565b600860009054906101000a900473ffffffffffffffffffffffffffffffffffffffff1681565b600760008273ffffffffffffffffffffffffffffffffffffffff1673ffffffffffffffffffffffffffffffffffffffff16815260200190815260200160002060009054906101000a900460ff161561079d576040517f08c379a000000000000000000000000000000000000000000000000000000000815260040161079490612341565b60405180910390fd5b6107c6816107a961050f565b600a6107b591906121fc565b60016107c19190612247565b6115d1565b6001600760008373ffffffffffffffffffffffffffffffffffffffff1673ffffffffffffffffffffffffffffffffffffffff16815260200190815260200160002060006101000a81548160ff02191690831515021790555050565b60008060008373ffffffffffffffffffffffffffffffffffffffff1673ffffffffffffffffffffffffffffffffffffffff168152602001908152602001600020549050919050565b60006108b2600560008473ffffffffffffffffffffffffffffffffffffffff1673ffffffffffffffffffffffffffffffffffffffff168152602001908152602001600020611727565b9050919050565b60076020528060005260406000206000915054906101000a900460ff1681565b6060600480546108e890611fa3565b80601f016020809104026020016040519081016040528092919081815260200182805461091490611fa3565b80156109615780601f1061093657610100808354040283529160200191610961565b820191906000526020600020905b81548152906001019060200180831161094457829003601f168201915b5050505050905090565b600080610976610fe4565b905060006109848286610f5d565b9050838110156109c9576040517f08c379a00000000000000000000000000000000000000000000000000000000081526004016109c0906123d3565b60405180910390fd5b6109d68286868403610fec565b60019250505092915050565b6000806109ed610fe4565b90506109fa818585611241565b600191505092915050565b600860009054906101000a900473ffffffffffffffffffffffffffffffffffffffff1673ffffffffffffffffffffffffffffffffffffffff163373ffffffffffffffffffffffffffffffffffffffff1614610a95576040517f08c379a0000000000000000000000000000000000000000000000000000000008152600401610a8c906120a9565b60405180910390fd5b80600860006101000a81548173ffffffffffffffffffffffffffffffffffffffff021916908373ffffffffffffffffffffffffffffffffffffffff16021790555050565b600860009054906101000a900473ffffffffffffffffffffffffffffffffffffffff1673ffffffffffffffffffffffffffffffffffffffff163373ffffffffffffffffffffffffffffffffffffffff1614610b69576040517f08c379a0000000000000000000000000000000000000000000000000000000008152600401610b60906120a9565b60405180910390fd5b600a60009054906101000a900460ff1615610bb9576040517f08c379a0000000000000000000000000000000000000000000000000000000008152600401610bb090612465565b60405180910390fd5b6064848688610bc89190612003565b610bd29190612003565b14610c12576040517f08c379a0000000000000000000000000000000000000000000000000000000008152600401610c09906124d1565b60405180910390fd5b610c363384606489600954610c279190612247565b610c319190612520565b611241565b610c5a3383606488600954610c4b9190612247565b610c559190612520565b611241565b610c7e3382606487600954610c6f9190612247565b610c799190612520565b611241565b8273ffffffffffffffffffffffffffffffffffffffff163373ffffffffffffffffffffffffffffffffffffffff167fddf252ad1be2c89b69c2b068fc378daa952ba7f163c4a11628f55a4df523b3ef606489600954610cdd9190612247565b610ce79190612520565b604051610cf49190611c7d565b60405180910390a38173ffffffffffffffffffffffffffffffffffffffff163373ffffffffffffffffffffffffffffffffffffffff167fddf252ad1be2c89b69c2b068fc378daa952ba7f163c4a11628f55a4df523b3ef606488600954610d5b9190612247565b610d659190612520565b604051610d729190611c7d565b60405180910390a38073ffffffffffffffffffffffffffffffffffffffff163373ffffffffffffffffffffffffffffffffffffffff167fddf252ad1be2c89b69c2b068fc378daa952ba7f163c4a11628f55a4df523b3ef606487600954610dd99190612247565b610de39190612520565b604051610df09190611c7d565b60405180910390a36001600a60006101000a81548160ff021916908315150217905550505050505050565b83421115610e5e576040517f08c379a0000000000000000000000000000000000000000000000000000000008152600401610e559061259d565b60405180910390fd5b60007f6e71edae12b1b97f4d1f60370fef10105fa2faae0126114a169c64845d6126c9888888610e8d8c611735565b89604051602001610ea3969594939291906125bd565b6040516020818303038152906040528051906020012090506000610ec682611793565b90506000610ed6828787876117ad565b90508973ffffffffffffffffffffffffffffffffffffffff168173ffffffffffffffffffffffffffffffffffffffff1614610f46576040517f08c379a0000000000000000000000000000000000000000000000000000000008152600401610f3d9061266a565b60405180910390fd5b610f518a8a8a610fec565b50505050505050505050565b6000600160008473ffffffffffffffffffffffffffffffffffffffff1673ffffffffffffffffffffffffffffffffffffffff16815260200190815260200160002060008373ffffffffffffffffffffffffffffffffffffffff1673ffffffffffffffffffffffffffffffffffffffff16815260200190815260200160002054905092915050565b600033905090565b600073ffffffffffffffffffffffffffffffffffffffff168373ffffffffffffffffffffffffffffffffffffffff160361105b576040517f08c379a0000000000000000000000000000000000000000000000000000000008152600401611052906126fc565b60405180910390fd5b600073ffffffffffffffffffffffffffffffffffffffff168273ffffffffffffffffffffffffffffffffffffffff16036110ca576040517f08c379a00000000000000000000000000000000000000000000000000000000081526004016110c19061278e565b60405180910390fd5b80600160008573ffffffffffffffffffffffffffffffffffffffff1673ffffffffffffffffffffffffffffffffffffffff16815260200190815260200160002060008473ffffffffffffffffffffffffffffffffffffffff1673ffffffffffffffffffffffffffffffffffffffff168152602001908152602001600020819055508173ffffffffffffffffffffffffffffffffffffffff168373ffffffffffffffffffffffffffffffffffffffff167f8c5be1e5ebec7d5bd14f71427d1e84f3dd0314c0f7b2291e5b200ac8c7c3b925836040516111a89190611c7d565b60405180910390a3505050565b60006111c18484610f5d565b90507fffffffffffffffffffffffffffffffffffffffffffffffffffffffffffffffff811461123b578181101561122d576040517f08c379a0000000000000000000000000000000000000000000000000000000008152600401611224906127fa565b60405180910390fd5b61123a8484848403610fec565b5b50505050565b600073ffffffffffffffffffffffffffffffffffffffff168373ffffffffffffffffffffffffffffffffffffffff16036112b0576040517f08c379a00000000000000000000000000000000000000000000000000000000081526004016112a79061288c565b60405180910390fd5b600073ffffffffffffffffffffffffffffffffffffffff168273ffffffffffffffffffffffffffffffffffffffff160361131f576040517f08c379a00000000000000000000000000000000000000000000000000000000081526004016113169061291e565b60405180910390fd5b61132a8383836117d8565b60008060008573ffffffffffffffffffffffffffffffffffffffff1673ffffffffffffffffffffffffffffffffffffffff168152602001908152602001600020549050818110156113b0576040517f08c379a00000000000000000000000000000000000000000000000000000000081526004016113a7906129b0565b60405180910390fd5b8181036000808673ffffffffffffffffffffffffffffffffffffffff1673ffffffffffffffffffffffffffffffffffffffff16815260200190815260200160002081905550816000808573ffffffffffffffffffffffffffffffffffffffff1673ffffffffffffffffffffffffffffffffffffffff168152602001908152602001600020600082825401925050819055508273ffffffffffffffffffffffffffffffffffffffff168473ffffffffffffffffffffffffffffffffffffffff167fddf252ad1be2c89b69c2b068fc378daa952ba7f163c4a11628f55a4df523b3ef8460405161149e9190611c7d565b60405180910390a36114b18484846117dd565b50505050565b60007f000000000000000000000000000000000000000000000000000000000000000073ffffffffffffffffffffffffffffffffffffffff163073ffffffffffffffffffffffffffffffffffffffff1614801561153357507f000000000000000000000000000000000000000000000000000000000000000046145b15611560577f000000000000000000000000000000000000000000000000000000000000000090506115ce565b6115cb7f00000000000000000000000000000000000000000000000000000000000000007f00000000000000000000000000000000000000000000000000000000000000007f00000000000000000000000000000000000000000000000000000000000000006117e2565b90505b90565b600073ffffffffffffffffffffffffffffffffffffffff168273ffffffffffffffffffffffffffffffffffffffff1603611640576040517f08c379a000000000000000000000000000000000000000000000000000000000815260040161163790612a1c565b60405180910390fd5b61164c600083836117d8565b806002600082825461165e9190612003565b92505081905550806000808473ffffffffffffffffffffffffffffffffffffffff1673ffffffffffffffffffffffffffffffffffffffff168152602001908152602001600020600082825401925050819055508173ffffffffffffffffffffffffffffffffffffffff16600073ffffffffffffffffffffffffffffffffffffffff167fddf252ad1be2c89b69c2b068fc378daa952ba7f163c4a11628f55a4df523b3ef8360405161170f9190611c7d565b60405180910390a3611723600083836117dd565b5050565b600081600001549050919050565b600080600560008473ffffffffffffffffffffffffffffffffffffffff1673ffffffffffffffffffffffffffffffffffffffff168152602001908152602001600020905061178281611727565b915061178d8161181c565b50919050565b60006117a66117a06114b7565b83611832565b9050919050565b60008060006117be87878787611865565b915091506117cb81611947565b8192505050949350505050565b505050565b505050565b600083838346306040516020016117fd959493929190612a3c565b6040516020818303038152906040528051906020012090509392505050565b6001816000016000828254019250508190555050565b60008282604051602001611847929190612b07565b60405160208183030381529060405280519060200120905092915050565b6000807f7fffffffffffffffffffffffffffffff5d576e7357a4501ddfe92f46681b20a08360001c11156118a057600060039150915061193e565b6000600187878787604051600081526020016040526040516118c59493929190612b3e565b6020604051602081039080840390855afa1580156118e7573d6000803e3d6000fd5b505050602060405103519050600073ffffffffffffffffffffffffffffffffffffffff168173ffffffffffffffffffffffffffffffffffffffff16036119355760006001925092505061193e565b80600092509250505b94509492505050565b6000600481111561195b5761195a612b83565b5b81600481111561196e5761196d612b83565b5b0315611aaa576001600481111561198857611987612b83565b5b81600481111561199b5761199a612b83565b5b036119db576040517f08c379a00000000000000000000000000000000000000000000000000000000081526004016119d290612bfe565b60405180910390fd5b600260048111156119ef576119ee612b83565b5b816004811115611a0257611a01612b83565b5b03611a42576040517f08c379a0000000000000000000000000000000000000000000000000000000008152600401611a3990612c6a565b60405180910390fd5b60036004811115611a5657611a55612b83565b5b816004811115611a6957611a68612b83565b5b03611aa9576040517f08c379a0000000000000000000000000000000000000000000000000000000008152600401611aa090612cfc565b60405180910390fd5b5b50565b600081519050919050565b600082825260208201905092915050565b60005b83811015611ae7578082015181840152602081019050611acc565b60008484015250505050565b6000601f19601f8301169050919050565b6000611b0f82611aad565b611b198185611ab8565b9350611b29818560208601611ac9565b611b3281611af3565b840191505092915050565b60006020820190508181036000830152611b578184611b04565b905092915050565b600080fd5b600073ffffffffffffffffffffffffffffffffffffffff82169050919050565b6000611b8f82611b64565b9050919050565b611b9f81611b84565b8114611baa57600080fd5b50565b600081359050611bbc81611b96565b92915050565b6000819050919050565b611bd581611bc2565b8114611be057600080fd5b50565b600081359050611bf281611bcc565b92915050565b60008060408385031215611c0f57611c0e611b5f565b5b6000611c1d85828601611bad565b9250506020611c2e85828601611be3565b9150509250929050565b60008115159050919050565b611c4d81611c38565b82525050565b6000602082019050611c686000830184611c44565b92915050565b611c7781611bc2565b82525050565b6000602082019050611c926000830184611c6e565b92915050565b600080600060608486031215611cb157611cb0611b5f565b5b6000611cbf86828701611bad565b9350506020611cd086828701611bad565b9250506040611ce186828701611be3565b9150509250925092565b600060ff82169050919050565b611d0181611ceb565b82525050565b6000602082019050611d1c6000830184611cf8565b92915050565b6000819050919050565b611d3581611d22565b82525050565b6000602082019050611d506000830184611d2c565b92915050565b611d5f81611b84565b82525050565b6000602082019050611d7a6000830184611d56565b92915050565b600060208284031215611d9657611d95611b5f565b5b6000611da484828501611bad565b91505092915050565b60008060008060008060c08789031215611dca57611dc9611b5f565b5b6000611dd889828a01611be3565b9650506020611de989828a01611be3565b9550506040611dfa89828a01611be3565b9450506060611e0b89828a01611bad565b9350506080611e1c89828a01611bad565b92505060a0611e2d89828a01611bad565b9150509295509295509295565b611e4381611ceb565b8114611e4e57600080fd5b50565b600081359050611e6081611e3a565b92915050565b611e6f81611d22565b8114611e7a57600080fd5b50565b600081359050611e8c81611e66565b92915050565b600080600080600080600060e0888a031215611eb157611eb0611b5f565b5b6000611ebf8a828b01611bad565b9750506020611ed08a828b01611bad565b9650506040611ee18a828b01611be3565b9550506060611ef28a828b01611be3565b9450506080611f038a828b01611e51565b93505060a0611f148a828b01611e7d565b92505060c0611f258a828b01611e7d565b91505092959891949750929550565b60008060408385031215611f4b57611f4a611b5f565b5b6000611f5985828601611bad565b9250506020611f6a85828601611bad565b9150509250929050565b7f4e487b7100000000000000000000000000000000000000000000000000000000600052602260045260246000fd5b60006002820490506001821680611fbb57607f821691505b602082108103611fce57611fcd611f74565b5b50919050565b7f4e487b7100000000000000000000000000000000000000000000000000000000600052601160045260246000fd5b600061200e82611bc2565b915061201983611bc2565b925082820190508082111561203157612030611fd4565b5b92915050565b7f4f6e6c79206d616b65722063616e2063616c6c20746869732066756e6374696f60008201527f6e00000000000000000000000000000000000000000000000000000000000000602082015250565b6000612093602183611ab8565b915061209e82612037565b604082019050919050565b600060208201905081810360008301526120c281612086565b9050919050565b60008160011c9050919050565b6000808291508390505b6001851115612120578086048111156120fc576120fb611fd4565b5b600185161561210b5780820291505b8081029050612119856120c9565b94506120e0565b94509492505050565b60008261213957600190506121f5565b8161214757600090506121f5565b816001811461215d576002811461216757612196565b60019150506121f5565b60ff84111561217957612178611fd4565b5b8360020a9150848211156121905761218f611fd4565b5b506121f5565b5060208310610133831016604e8410600b84101617156121cb5782820a9050838111156121c6576121c5611fd4565b5b6121f5565b6121d884848460016120d6565b925090508184048111156121ef576121ee611fd4565b5b81810290505b9392505050565b600061220782611bc2565b915061221283611ceb565b925061223f7fffffffffffffffffffffffffffffffffffffffffffffffffffffffffffffffff8484612129565b905092915050565b600061225282611bc2565b915061225d83611bc2565b925082820261226b81611bc2565b9150828204841483151761228257612281611fd4565b5b5092915050565b7f4d617820737570706c7920657863656564656400000000000000000000000000600082015250565b60006122bf601383611ab8565b91506122ca82612289565b602082019050919050565b600060208201905081810360008301526122ee816122b2565b9050919050565b7f416c726561647920726577617264656400000000000000000000000000000000600082015250565b600061232b601083611ab8565b9150612336826122f5565b602082019050919050565b6000602082019050818103600083015261235a8161231e565b9050919050565b7f45524332303a2064656372656173656420616c6c6f77616e63652062656c6f7760008201527f207a65726f000000000000000000000000000000000000000000000000000000602082015250565b60006123bd602583611ab8565b91506123c882612361565b604082019050919050565b600060208201905081810360008301526123ec816123b0565b9050919050565b7f696e69742066756e6374696f6e2063616e206f6e6c792062652063616c6c656460008201527f206f6e6365000000000000000000000000000000000000000000000000000000602082015250565b600061244f602583611ab8565b915061245a826123f3565b604082019050919050565b6000602082019050818103600083015261247e81612442565b9050919050565b7f526174696f73206d7573742061646420757020746f2031303000000000000000600082015250565b60006124bb601983611ab8565b91506124c682612485565b602082019050919050565b600060208201905081810360008301526124ea816124ae565b9050919050565b7f4e487b7100000000000000000000000000000000000000000000000000000000600052601260045260246000fd5b600061252b82611bc2565b915061253683611bc2565b925082612546576125456124f1565b5b828204905092915050565b7f45524332305065726d69743a206578706972656420646561646c696e65000000600082015250565b6000612587601d83611ab8565b915061259282612551565b602082019050919050565b600060208201905081810360008301526125b68161257a565b9050919050565b600060c0820190506125d26000830189611d2c565b6125df6020830188611d56565b6125ec6040830187611d56565b6125f96060830186611c6e565b6126066080830185611c6e565b61261360a0830184611c6e565b979650505050505050565b7f45524332305065726d69743a20696e76616c6964207369676e61747572650000600082015250565b6000612654601e83611ab8565b915061265f8261261e565b602082019050919050565b6000602082019050818103600083015261268381612647565b9050919050565b7f45524332303a20617070726f76652066726f6d20746865207a65726f2061646460008201527f7265737300000000000000000000000000000000000000000000000000000000602082015250565b60006126e6602483611ab8565b91506126f18261268a565b604082019050919050565b60006020820190508181036000830152612715816126d9565b9050919050565b7f45524332303a20617070726f766520746f20746865207a65726f20616464726560008201527f7373000000000000000000000000000000000000000000000000000000000000602082015250565b6000612778602283611ab8565b91506127838261271c565b604082019050919050565b600060208201905081810360008301526127a78161276b565b9050919050565b7f45524332303a20696e73756666696369656e7420616c6c6f77616e6365000000600082015250565b60006127e4601d83611ab8565b91506127ef826127ae565b602082019050919050565b60006020820190508181036000830152612813816127d7565b9050919050565b7f45524332303a207472616e736665722066726f6d20746865207a65726f20616460008201527f6472657373000000000000000000000000000000000000000000000000000000602082015250565b6000612876602583611ab8565b91506128818261281a565b604082019050919050565b600060208201905081810360008301526128a581612869565b9050919050565b7f45524332303a207472616e7366657220746f20746865207a65726f206164647260008201527f6573730000000000000000000000000000000000000000000000000000000000602082015250565b6000612908602383611ab8565b9150612913826128ac565b604082019050919050565b60006020820190508181036000830152612937816128fb565b9050919050565b7f45524332303a207472616e7366657220616d6f756e742065786365656473206260008201527f616c616e63650000000000000000000000000000000000000000000000000000602082015250565b600061299a602683611ab8565b91506129a58261293e565b604082019050919050565b600060208201905081810360008301526129c98161298d565b9050919050565b7f45524332303a206d696e7420746f20746865207a65726f206164647265737300600082015250565b6000612a06601f83611ab8565b9150612a11826129d0565b602082019050919050565b60006020820190508181036000830152612a35816129f9565b9050919050565b600060a082019050612a516000830188611d2c565b612a5e6020830187611d2c565b612a6b6040830186611d2c565b612a786060830185611c6e565b612a856080830184611d56565b9695505050505050565b600081905092915050565b7f1901000000000000000000000000000000000000000000000000000000000000600082015250565b6000612ad0600283612a8f565b9150612adb82612a9a565b600282019050919050565b6000819050919050565b612b01612afc82611d22565b612ae6565b82525050565b6000612b1282612ac3565b9150612b1e8285612af0565b602082019150612b2e8284612af0565b6020820191508190509392505050565b6000608082019050612b536000830187611d2c565b612b606020830186611cf8565b612b6d6040830185611d2c565b612b7a6060830184611d2c565b95945050505050565b7f4e487b7100000000000000000000000000000000000000000000000000000000600052602160045260246000fd5b7f45434453413a20696e76616c6964207369676e61747572650000000000000000600082015250565b6000612be8601883611ab8565b9150612bf382612bb2565b602082019050919050565b60006020820190508181036000830152612c1781612bdb565b9050919050565b7f45434453413a20696e76616c6964207369676e6174757265206c656e67746800600082015250565b6000612c54601f83611ab8565b9150612c5f82612c1e565b602082019050919050565b60006020820190508181036000830152612c8381612c47565b9050919050565b7f45434453413a20696e76616c6964207369676e6174757265202773272076616c60008201527f7565000000000000000000000000000000000000000000000000000000000000602082015250565b6000612ce6602283611ab8565b9150612cf182612c8a565b604082019050919050565b60006020820190508181036000830152612d1581612cd9565b905091905056fea2646970667358221220144cde0ecfa2406ba32d9e2131ce37b517b13c7246c08857f1daa808c985810064736f6c63430008110033",
  "linkReferences": {},
  "deployedLinkReferences": {}
}